{
  "_format": "hh-sol-artifact-1",
  "contractName": "ConfidentialTransitAnalytics",
  "sourceName": "contracts/ConfidentialTransitAnalytics.sol",
  "abi": [
    {
      "inputs": [],
      "stateMutability": "nonpayable",
      "type": "constructor"
    },
    {
      "inputs": [],
      "name": "HandlesAlreadySavedForRequestID",
      "type": "error"
    },
    {
      "inputs": [],
      "name": "InvalidKMSSignatures",
      "type": "error"
    },
    {
      "inputs": [],
      "name": "NoHandleFoundForRequestID",
      "type": "error"
    },
    {
      "inputs": [],
      "name": "UnsupportedHandleType",
      "type": "error"
    },
    {
      "anonymous": false,
      "inputs": [
        {
          "indexed": true,
          "internalType": "address",
          "name": "cardHolder",
          "type": "address"
        },
        {
          "indexed": true,
          "internalType": "uint32",
          "name": "period",
          "type": "uint32"
        }
      ],
      "name": "DataSubmitted",
      "type": "event"
    },
    {
      "anonymous": false,
      "inputs": [
        {
          "indexed": true,
          "internalType": "uint256",
          "name": "requestID",
          "type": "uint256"
        }
      ],
      "name": "DecryptionFulfilled",
      "type": "event"
    },
    {
      "anonymous": false,
      "inputs": [
        {
          "indexed": true,
          "internalType": "uint32",
          "name": "period",
          "type": "uint32"
        }
      ],
      "name": "NoDataCollected",
      "type": "event"
    },
    {
      "anonymous": false,
      "inputs": [
        {
          "indexed": true,
          "internalType": "uint32",
          "name": "period",
          "type": "uint32"
        },
        {
          "indexed": false,
          "internalType": "uint32",
          "name": "totalRevenue",
          "type": "uint32"
        },
        {
          "indexed": false,
          "internalType": "uint32",
          "name": "totalRides",
          "type": "uint32"
        }
      ],
      "name": "PeriodAnalyzed",
      "type": "event"
    },
    {
      "anonymous": false,
      "inputs": [
        {
          "indexed": true,
          "internalType": "uint32",
          "name": "period",
          "type": "uint32"
        },
        {
          "indexed": false,
          "internalType": "uint256",
          "name": "startTime",
          "type": "uint256"
        }
      ],
      "name": "PeriodStarted",
      "type": "event"
    },
    {
      "inputs": [
        {
          "internalType": "uint32",
          "name": "",
          "type": "uint32"
        },
        {
          "internalType": "address",
          "name": "",
          "type": "address"
        }
      ],
      "name": "cardData",
      "outputs": [
        {
          "internalType": "euint32",
          "name": "encryptedSpending",
          "type": "bytes32"
        },
        {
          "internalType": "euint8",
          "name": "encryptedRides",
          "type": "bytes32"
        },
        {
          "internalType": "bool",
          "name": "hasData",
          "type": "bool"
        },
        {
          "internalType": "uint256",
          "name": "timestamp",
          "type": "uint256"
        }
      ],
      "stateMutability": "view",
      "type": "function"
    },
    {
      "inputs": [],
      "name": "currentPeriod",
      "outputs": [
        {
          "internalType": "uint32",
          "name": "",
          "type": "uint32"
        }
      ],
      "stateMutability": "view",
      "type": "function"
    },
    {
      "inputs": [
        {
          "internalType": "uint32",
          "name": "periodNumber",
          "type": "uint32"
        }
      ],
      "name": "getAverageRides",
      "outputs": [
        {
          "internalType": "uint256",
          "name": "",
          "type": "uint256"
        }
      ],
      "stateMutability": "view",
      "type": "function"
    },
    {
      "inputs": [
        {
          "internalType": "uint32",
          "name": "periodNumber",
          "type": "uint32"
        }
      ],
      "name": "getAverageSpending",
      "outputs": [
        {
          "internalType": "uint256",
          "name": "",
          "type": "uint256"
        }
      ],
      "stateMutability": "view",
      "type": "function"
    },
    {
      "inputs": [
        {
          "internalType": "address",
          "name": "cardHolder",
          "type": "address"
        }
      ],
      "name": "getCardDataStatus",
      "outputs": [
        {
          "internalType": "bool",
          "name": "hasData",
          "type": "bool"
        },
        {
          "internalType": "uint256",
          "name": "timestamp",
          "type": "uint256"
        }
      ],
      "stateMutability": "view",
      "type": "function"
    },
    {
      "inputs": [],
      "name": "getCurrentAdjustedHour",
      "outputs": [
        {
          "internalType": "uint256",
          "name": "",
          "type": "uint256"
        }
      ],
      "stateMutability": "view",
      "type": "function"
    },
    {
      "inputs": [],
      "name": "getCurrentPeriodInfo",
      "outputs": [
        {
          "internalType": "uint32",
          "name": "period",
          "type": "uint32"
        },
        {
          "internalType": "bool",
          "name": "dataCollected",
          "type": "bool"
        },
        {
          "internalType": "bool",
          "name": "periodClosed",
          "type": "bool"
        },
        {
          "internalType": "uint256",
          "name": "startTime",
          "type": "uint256"
        },
        {
          "internalType": "uint256",
          "name": "participantCount",
          "type": "uint256"
        }
      ],
      "stateMutability": "view",
      "type": "function"
    },
    {
      "inputs": [
        {
          "internalType": "uint32",
          "name": "periodNumber",
          "type": "uint32"
        }
      ],
      "name": "getPeriodHistory",
      "outputs": [
        {
          "internalType": "bool",
          "name": "periodClosed",
          "type": "bool"
        },
        {
          "internalType": "uint32",
          "name": "publicRevenue",
          "type": "uint32"
        },
        {
          "internalType": "uint32",
          "name": "publicRides",
          "type": "uint32"
        },
        {
          "internalType": "uint256",
          "name": "startTime",
          "type": "uint256"
        },
        {
          "internalType": "uint256",
          "name": "endTime",
          "type": "uint256"
        },
        {
          "internalType": "uint256",
          "name": "participantCount",
          "type": "uint256"
        }
      ],
      "stateMutability": "view",
      "type": "function"
    },
    {
      "inputs": [],
      "name": "initializePeriod",
      "outputs": [],
      "stateMutability": "nonpayable",
      "type": "function"
    },
    {
      "inputs": [],
      "name": "isAnalysisActive",
      "outputs": [
        {
          "internalType": "bool",
          "name": "",
          "type": "bool"
        }
      ],
      "stateMutability": "view",
      "type": "function"
    },
    {
      "inputs": [],
      "name": "isEvenHourWindow",
      "outputs": [
        {
          "internalType": "bool",
          "name": "",
          "type": "bool"
        }
      ],
      "stateMutability": "view",
      "type": "function"
    },
    {
      "inputs": [],
      "name": "isOddHourWindow",
      "outputs": [
        {
          "internalType": "bool",
          "name": "",
          "type": "bool"
        }
      ],
      "stateMutability": "view",
      "type": "function"
    },
    {
      "inputs": [],
      "name": "isSubmissionActive",
      "outputs": [
        {
          "internalType": "bool",
          "name": "",
          "type": "bool"
        }
      ],
      "stateMutability": "view",
      "type": "function"
    },
    {
      "inputs": [],
      "name": "performAnalysis",
      "outputs": [],
      "stateMutability": "nonpayable",
      "type": "function"
    },
    {
      "inputs": [
        {
          "internalType": "uint32",
          "name": "",
          "type": "uint32"
        }
      ],
      "name": "periods",
      "outputs": [
        {
          "internalType": "euint32",
          "name": "totalRevenue",
          "type": "bytes32"
        },
        {
          "internalType": "euint32",
          "name": "totalRides",
          "type": "bytes32"
        },
        {
          "internalType": "bool",
          "name": "dataCollected",
          "type": "bool"
        },
        {
          "internalType": "bool",
          "name": "periodClosed",
          "type": "bool"
        },
        {
          "internalType": "uint32",
          "name": "publicRevenue",
          "type": "uint32"
        },
        {
          "internalType": "uint32",
          "name": "publicRides",
          "type": "uint32"
        },
        {
          "internalType": "uint256",
          "name": "startTime",
          "type": "uint256"
        },
        {
          "internalType": "uint256",
          "name": "endTime",
          "type": "uint256"
        }
      ],
      "stateMutability": "view",
      "type": "function"
    },
    {
      "inputs": [
        {
          "internalType": "uint256",
          "name": "requestId",
          "type": "uint256"
        },
        {
          "internalType": "uint32",
          "name": "revenue",
          "type": "uint32"
        },
        {
          "internalType": "uint32",
          "name": "rides",
          "type": "uint32"
        },
        {
          "internalType": "bytes[]",
          "name": "signatures",
          "type": "bytes[]"
        }
      ],
      "name": "processAnalysis",
      "outputs": [],
      "stateMutability": "nonpayable",
      "type": "function"
    },
    {
      "inputs": [
        {
          "internalType": "uint32",
          "name": "_spending",
          "type": "uint32"
        },
        {
          "internalType": "uint8",
          "name": "_rides",
          "type": "uint8"
        }
      ],
      "name": "submitCardData",
      "outputs": [],
      "stateMutability": "nonpayable",
      "type": "function"
    },
    {
      "inputs": [],
      "name": "transitAuthority",
      "outputs": [
        {
          "internalType": "address",
          "name": "",
          "type": "address"
        }
      ],
      "stateMutability": "view",
      "type": "function"
    }
  ],
  "bytecode": "0x608060405234801561000f575f80fd5b5061018a6100ae604080516080810182525f808252602082018190529181018290526060810191909152506040805160808101825273687820221192c5b662b25367f70076a37bc79b6c815273848b0066793bcc60346da1f49049357399b8d5956020820152731364cbbf2cdf5032c47d8226a6f6fbd2afcdacac9181019190915273bc91f3dad1a5f19f8390c400196e58073b6a0bc4606082015290565b80517fed8d60e34876f751cc8b014c560745351147d9de11b9347c854e881b128ea60080546001600160a01b03199081166001600160a01b039384161790915560208301517fed8d60e34876f751cc8b014c560745351147d9de11b9347c854e881b128ea6018054831691841691909117905560408301517fed8d60e34876f751cc8b014c560745351147d9de11b9347c854e881b128ea6028054831691841691909117905560608301517fed8d60e34876f751cc8b014c560745351147d9de11b9347c854e881b128ea6038054909216921691909117905550565b7f5ea69329017273582817d320489fbd94f775580e90c092699ca6f3d12fdf7d0080546001600160a01b03191673a02cda4ca3a71d7c46997716f4283aa851c288121790555f805463ffffffff60a01b1933166001600160c01b031990911617600160a01b179055611dbf806101ff5f395ff3fe608060405234801561000f575f80fd5b506004361061012f575f3560e01c806381be880b116100ad578063a8f7d3081161007d578063eba6a1f111610063578063eba6a1f114610407578063f9562adc1461041a578063fbc1f6c914610444575f80fd5b8063a8f7d308146103f7578063c85835fb146103ff575f80fd5b806381be880b1461030d57806384b50588146103bb5780638b47f0c6146103dc578063962211bf146103ef575f80fd5b806343964d06116101025780636ce16c74116100e85780636ce16c741461028a5780637007cdb5146102925780637b07a2ca146102a5575f80fd5b806343964d061461021c57806367dd997314610224575f80fd5b8063060406181461013357806307901769146101635780632b31bf121461017b578063374e7b2414610185575b5f80fd5b5f5461014990600160a01b900463ffffffff1681565b60405163ffffffff90911681526020015b60405180910390f35b61016b6104bd565b604051901515815260200161015a565b6101836104fb565b005b6101e4610193366004611913565b63ffffffff9081165f9081526002602081905260409091209081015460038201546004830154600590930154610100830460ff16956201000084048616956601000000000000909404909316939192565b60408051961515875263ffffffff958616602088015293909416928501929092526060840152608083015260a082015260c00161015a565b61016b6106d0565b610264610232366004611942565b600160208181525f938452604080852090915291835291208054918101546002820154600390920154909160ff169084565b60408051948552602085019390935290151591830191909152606082015260800161015a565b61016b61073a565b6101836102a03660046119b8565b61077a565b6102f66102b3366004611aed565b5f805463ffffffff600160a01b9091041681526001602090815260408083206001600160a01b03909416835292905220600281015460039091015460ff90911691565b60408051921515835260208301919091520161015a565b61037161031b366004611913565b600260208190525f91825260409091208054600182015492820154600383015460049093015491939260ff8083169361010084049091169263ffffffff6201000082048116936601000000000000909204169188565b60408051988952602089019790975294151595870195909552911515606086015263ffffffff90811660808601521660a084015260c083019190915260e08201526101000161015a565b6103ce6103c9366004611913565b61088a565b60405190815260200161015a565b6103ce6103ea366004611913565b610962565b61016b610a37565b6103ce610ad9565b610183610b07565b610183610415366004611b06565b610dd8565b5f5461042c906001600160a01b031681565b6040516001600160a01b03909116815260200161015a565b6104885f8054600160a01b900463ffffffff16808252600260208190526040909220918201546003830154600590930154919360ff80831694610100909304169290565b6040805163ffffffff90961686529315156020860152911515928401929092526060830191909152608082015260a00161015a565b5f806104cb612a3042611b54565b90505f60186104dc610e1084611b7b565b6104e69190611b8e565b90506104f3600282611b8e565b159392505050565b6105036106d0565b6105545760405162461bcd60e51b815260206004820152601360248201527f4e6f7420616e616c797369732077696e646f770000000000000000000000000060448201526064015b60405180910390fd5b5f8054600160a01b900463ffffffff168152600260208190526040909120015460ff166105c35760405162461bcd60e51b815260206004820152601160248201527f4e6f206461746120636f6c6c6563746564000000000000000000000000000000604482015260640161054b565b5f8054600160a01b900463ffffffff1681526002602081905260409091200154610100900460ff16156106385760405162461bcd60e51b815260206004820152601560248201527f506572696f6420616c726561647920636c6f7365640000000000000000000000604482015260640161054b565b5f805463ffffffff600160a01b9091041681526002602081905260408083208151838152606081019092529291816020016020820280368337019050508254909150815f8151811061068c5761068c611ba1565b60209081029190910101526001820154816001815181106106af576106af611ba1565b60209081029190910101526106cb81637007cdb560e01b61103a565b505050565b5f6106d96104bd565b801561070457505f8054600160a01b900463ffffffff168152600260208190526040909120015460ff165b801561073557505f8054600160a01b900463ffffffff1681526002602081905260409091200154610100900460ff16155b905090565b5f80610748612a3042611b54565b90505f6018610759610e1084611b7b565b6107639190611b8e565b9050610770600282611b8e565b6001149250505090565b6107848482611046565b5f805463ffffffff600160a01b9182900481168352600260208190526040808520918201805442600485015561ff001989861666010000000000000269ffffffff000000000000198c881662010000021669ffffffffffffffff0000199093169290921791909117166101001790559354935190939290920416907f518cc3186a9bb23d96dd2ede122e0c91eb5ebc99e56dff15ddab244cf48ce37d90610840908790879063ffffffff92831681529116602082015260400190565b60405180910390a25f8054600160a01b900463ffffffff1690601461086483611bb5565b91906101000a81548163ffffffff021916908363ffffffff160217905550505050505050565b63ffffffff81165f908152600260208190526040822090810154610100900460ff166108f85760405162461bcd60e51b815260206004820152601560248201527f506572696f64206e6f7420636c6f736564207965740000000000000000000000604482015260640161054b565b600581015461093b5760405162461bcd60e51b815260206004820152600f60248201526e4e6f207061727469636970616e747360881b604482015260640161054b565b6005810154600282015461095b919062010000900463ffffffff16611b7b565b9392505050565b63ffffffff81165f908152600260208190526040822090810154610100900460ff166109d05760405162461bcd60e51b815260206004820152601560248201527f506572696f64206e6f7420636c6f736564207965740000000000000000000000604482015260640161054b565b6005810154610a135760405162461bcd60e51b815260206004820152600f60248201526e4e6f207061727469636970616e747360881b604482015260640161054b565b6005810154600282015461095b91906601000000000000900463ffffffff16611b7b565b5f8054600160a01b900463ffffffff1681526002602081905260408220015460ff16610a6257505f90565b5f8054600160a01b900463ffffffff1681526002602081905260409091200154610100900460ff1615610a9457505f90565b610a9c61073a565b806107355750610aaa6104bd565b1580156107355750505f8054600160a01b900463ffffffff168152600260208190526040909120015460ff1690565b5f80610ae7612a3042611b54565b90506018610af7610e1083611b7b565b610b019190611b8e565b91505090565b610b0f61073a565b610b675760405162461bcd60e51b8152602060048201526024808201527f43616e206f6e6c7920696e697469616c697a6520647572696e67206f646420686044820152636f75727360e01b606482015260840161054b565b5f8054600160a01b900463ffffffff168152600260208190526040909120015460ff161580610bba57505f8054600160a01b900463ffffffff1681526002602081905260409091200154610100900460ff165b610c065760405162461bcd60e51b815260206004820152601560248201527f506572696f6420616c7265616479206163746976650000000000000000000000604482015260640161054b565b5f610c105f6110ad565b90505f610c1c5f6110ad565b90506040518061012001604052808381526020018281526020016001151581526020015f151581526020015f63ffffffff1681526020015f63ffffffff1681526020014281526020015f81526020015f67ffffffffffffffff811115610c8457610c84611973565b604051908082528060200260200182016040528015610cad578160200160208202803683370190505b5090525f8054600160a01b900463ffffffff908116825260026020818152604093849020855181558582015160018201559385015191840180546060870151608088015160a089015161ffff1990931695151561ff0019169590951761010091151582021769ffffffffffffffff00001916620100009587169590950269ffffffff000000000000191694909417660100000000000091909516029390931790925560c0840151600384015560e084015160048401558301518051610d789260058501920190611842565b50905050610d85826110c5565b50610d8f816110c5565b505f54604051428152600160a01b90910463ffffffff16907ff938bc85518442b33ceb26633bda0b0846fcaca6c6782bcd92dca423bc9ad9a79060200160405180910390a25050565b610de0610a37565b610e2c5760405162461bcd60e51b815260206004820152601560248201527f4e6f74207375626d697373696f6e2077696e646f770000000000000000000000604482015260640161054b565b5f8054600160a01b900463ffffffff16815260016020908152604080832033845290915290206002015460ff1615610eb15760405162461bcd60e51b815260206004820152602260248201527f4461746120616c7265616479207375626d6974746564207468697320706572696044820152611bd960f21b606482015260840161054b565b5f610ebb836110ad565b90505f610ec7836110d4565b604080516080810182528481526020808201848152600183850181815242606086019081525f8054600160a01b9081900463ffffffff908116835285885289832033845288528983209851895595519488019490945591516002808801805460ff1916921515929092179091559051600390960195909555805491909104909116815291905220805491925090610f5e90846110e3565b81555f610f6a83611111565b9050610f7a8260010154826110e3565b6001808401919091555f805463ffffffff600160a01b9091041681526002602090815260408220600501805493840181558252902001805473ffffffffffffffffffffffffffffffffffffffff191633179055610fd6846110c5565b50610fe1843361111d565b50610feb836110c5565b50610ff6833361111d565b505f8054604051600160a01b90910463ffffffff169133917f0403314b29a8b3d756c63f45757332a846274f01ce0a51000c5f4e56292723c09190a3505050505050565b5f61095b83835f61112f565b5f6110508361127b565b90505f61105d828461134c565b90508061107d5760405163cf6c44e960e01b815260040160405180910390fd5b60405184907f1af0453083661051f6e56e5c070792320652e612154bf9af8637bb1e7655b99d905f90a250505050565b5f6110bf8263ffffffff166004611467565b92915050565b5f6110d08230611524565b5090565b5f6110bf8260ff166002611467565b5f826110f5576110f25f6110ad565b92505b81611106576111035f6110ad565b91505b61095b83835f6115ad565b5f6110bf82600461168d565b5f6111288383611524565b5090919050565b7f5ea69329017273582817d320489fbd94f775580e90c092699ca6f3d12fdf7d01547fed8d60e34876f751cc8b014c560745351147d9de11b9347c854e881b128ea6008054604051637d6e912360e11b81527f5ea69329017273582817d320489fbd94f775580e90c092699ca6f3d12fdf7d0092916001600160a01b03169063fadd2246906111c2908990600401611c11565b5f604051808303815f87803b1580156111d9575f80fd5b505af11580156111eb573d5f803e3d5ffd5b50508354604051633263b83b60e01b81526001600160a01b039091169250633263b83b915086906112249087908b908b90600401611c23565b5f604051808303818588803b15801561123b575f80fd5b505af115801561124d573d5f803e3d5ffd5b505050505061125c8387611702565b600182018054905f61126d83611c54565b919050555050509392505050565b5f8181527f5ea69329017273582817d320489fbd94f775580e90c092699ca6f3d12fdf7d0260205260408120546060917f5ea69329017273582817d320489fbd94f775580e90c092699ca6f3d12fdf7d009190036112ec5760405163d66ca67560e01b815260040160405180910390fd5b5f8381526002820160209081526040918290208054835181840281018401909452808452909183018282801561133f57602002820191905f5260205f20905b81548152602001906001019080831161132b575b5050505050915050919050565b5f60248161135985611795565b90505f8167ffffffffffffffff81111561137557611375611973565b6040519080825280601f01601f19166020018201604052801561139f576020820181803683370190505b509050818360208301377fed8d60e34876f751cc8b014c560745351147d9de11b9347c854e881b128ea60254604051632c027b1360e21b81527fed8d60e34876f751cc8b014c560745351147d9de11b9347c854e881b128ea600916001600160a01b03169063b009ec4c9061141c908a9086908b90600401611caf565b6020604051808303815f875af1158015611438573d5f803e3d5ffd5b505050506040513d601f19601f8201168201806040525081019061145c9190611d34565b979650505050505050565b7fed8d60e34876f751cc8b014c560745351147d9de11b9347c854e881b128ea60154604051639cd07acb60e01b81525f917fed8d60e34876f751cc8b014c560745351147d9de11b9347c854e881b128ea600916001600160a01b0390911690639cd07acb906114dc9087908790600401611d87565b6020604051808303815f875af11580156114f8573d5f803e3d5ffd5b505050506040513d601f19601f8201168201806040525081019061151c9190611d9b565b949350505050565b5f7fed8d60e34876f751cc8b014c560745351147d9de11b9347c854e881b128ea6008054604051635ca4b5b160e11b8152600481018690526001600160a01b03858116602483015292935091169063b9496b62906044015f604051808303815f87803b158015611592575f80fd5b505af11580156115a4573d5f803e3d5ffd5b50505050505050565b5f8082156115c05750600160f81b6115c3565b505f5b5f7fed8d60e34876f751cc8b014c560745351147d9de11b9347c854e881b128ea600600181015460405163022f65e760e31b815260048101899052602481018890527fff00000000000000000000000000000000000000000000000000000000000000851660448201529192506001600160a01b03169063117b2f38906064016020604051808303815f875af115801561165f573d5f803e3d5ffd5b505050506040513d601f19601f820116820180604052508101906116839190611d9b565b9695505050505050565b7fed8d60e34876f751cc8b014c560745351147d9de11b9347c854e881b128ea601546040516307227b9160e21b81525f917fed8d60e34876f751cc8b014c560745351147d9de11b9347c854e881b128ea600916001600160a01b0390911690631c89ee44906114dc9087908790600401611d87565b5f8281527f5ea69329017273582817d320489fbd94f775580e90c092699ca6f3d12fdf7d0260205260409020547f5ea69329017273582817d320489fbd94f775580e90c092699ca6f3d12fdf7d00901561176f57604051633f06d22b60e01b815260040160405180910390fd5b5f8381526002820160209081526040909120835161178f928501906118ae565b50505050565b80515f9081805b82811015611836575f8582815181106117b7576117b7611ba1565b6020026020010151601e602081106117d1576117d1611ba1565b1a60538111156117e3576117e3611d53565b905060098160538111156117f9576117f9611d53565b60ff1610156118145761180d602084611b54565b925061182d565b60405163ce54a8d160e01b815260040160405180910390fd5b5060010161179c565b5061151c602082611b54565b828054828255905f5260205f209081019282156118a2579160200282015b828111156118a2578251825473ffffffffffffffffffffffffffffffffffffffff19166001600160a01b03909116178255602090920191600190910190611860565b506110d09291506118e7565b828054828255905f5260205f209081019282156118a2579160200282015b828111156118a25782518255916020019190600101906118cc565b5b808211156110d0575f81556001016118e8565b803563ffffffff8116811461190e575f80fd5b919050565b5f60208284031215611923575f80fd5b61095b826118fb565b80356001600160a01b038116811461190e575f80fd5b5f8060408385031215611953575f80fd5b61195c836118fb565b915061196a6020840161192c565b90509250929050565b634e487b7160e01b5f52604160045260245ffd5b604051601f8201601f1916810167ffffffffffffffff811182821017156119b0576119b0611973565b604052919050565b5f805f80608085870312156119cb575f80fd5b8435935060206119dc8187016118fb565b93506119ea604087016118fb565b9250606086013567ffffffffffffffff80821115611a06575f80fd5b818801915088601f830112611a19575f80fd5b813581811115611a2b57611a2b611973565b8060051b611a3a858201611987565b918252838101850191858101908c841115611a53575f80fd5b86860192505b83831015611adc57823585811115611a6f575f80fd5b8601603f81018e13611a7f575f80fd5b8781013586811115611a9357611a93611973565b611aa5601f8201601f19168a01611987565b8181528f6040838501011115611ab9575f80fd5b81604084018b8301375f9181018a01919091528352509186019190860190611a59565b999c989b5096995050505050505050565b5f60208284031215611afd575f80fd5b61095b8261192c565b5f8060408385031215611b17575f80fd5b611b20836118fb565b9150602083013560ff81168114611b35575f80fd5b809150509250929050565b634e487b7160e01b5f52601160045260245ffd5b808201808211156110bf576110bf611b40565b634e487b7160e01b5f52601260045260245ffd5b5f82611b8957611b89611b67565b500490565b5f82611b9c57611b9c611b67565b500690565b634e487b7160e01b5f52603260045260245ffd5b5f63ffffffff808316818103611bcd57611bcd611b40565b6001019392505050565b5f815180845260208085019450602084015f5b83811015611c0657815187529582019590820190600101611bea565b509495945050505050565b602081525f61095b6020830184611bd7565b838152606060208201525f611c3b6060830185611bd7565b905063ffffffff60e01b83166040830152949350505050565b5f60018201611c6557611c65611b40565b5060010190565b5f81518084525f5b81811015611c9057602081850181015186830182015201611c74565b505f602082860101526020601f19601f83011685010191505092915050565b606081525f611cc16060830186611bd7565b602083820381850152611cd48287611c6c565b915083820360408501528185518084528284019150828160051b8501018388015f5b83811015611d2457601f19878403018552611d12838351611c6c565b94860194925090850190600101611cf6565b50909a9950505050505050505050565b5f60208284031215611d44575f80fd5b8151801515811461095b575f80fd5b634e487b7160e01b5f52602160045260245ffd5b60548110611d8357634e487b7160e01b5f52602160045260245ffd5b9052565b8281526040810161095b6020830184611d67565b5f60208284031215611dab575f80fd5b505191905056fea164736f6c6343000818000a",
  "linkReferences": {},
  "deployedLinkReferences": {}
}